:100000000C942A000C94EC040C9447000C944700C8
:100010000C949B0F0C94470F0C9447000C944700D2
:100020000C9447000C9447000C94800E0C943D0EE9
:100030000C9447000C943B100C9447000C94971BB5
:100040000C946F000C9447000C9447000C944700EC
:100050000C94470011241FBECFE5D8E0DEBFCDBF12
:1000600017E0A0E6B0E0ECE7FCE302C005900D92DB
:10007000AE3CB107D9F727E0AEECB7E001C01D9266
:10008000A63FB207E1F70E942D0D0C943C1E0C9484
:10009000000087B18F73806487B987B18F7D87B97E
:1000A00086B1806286B980B78F7180BF86B1876064
:1000B00086B98FB780688FBF86B1886086B986B1F0
:1000C000806886B9089597B1907E892B87B986B1EB
:1000D000806486B9349BFECF84B195B108951F9298
:1000E0000F920FB60F9211242F933F934F935F936C
:1000F0006F937F938F939F93AF93BF93EF93FF93F0
:1001000087E00E94630022E3AC01249FC001259F89
:10011000900D1124892F9927869586959093CF0766
:100120008093CE074C9738F041E060E070E088ECB7
:1001300092E40E94FD028091CE079091CF074697EE
:1001400010F40E941803FF91EF91BF91AF919F911E
:100150008F917F916F915F914F913F912F910F9070
:100160000FBE0F901F90189541E067E082E00E945B
:10017000230341E067E082E00E949403089540E099
:1001800067E082E00E949403089541E067E082E026
:100190000E949403089567E082E00E94330408956A
:1001A000CF92DF92EF92FF92CF93DF930E947F0C6A
:1001B00081E790E00E94F90B60E081E00E94830CEF
:1001C0008EE790E00E94F90B1092D00704C00E94C5
:1001D000D70A8093D0078091D0079FEC980F923078
:1001E00020F09091D1079111F2CF813309F068C0CE
:1001F0000E947F0C85E890E00E94F90B60E081E0AE
:100200000E94830C86E990E00E94F90B1092D007BF
:1002100004C00E94D70A8093D0078091D0079FEC3A
:10022000980F943020F09091D1079111F2CF813343
:1002300019F40E94AC0CC5C1823319F40E94C80C99
:10024000C0C1833319F40E94E40CBBC1843309F0AC
:10025000B8C10E947F0C86EA90E00E94F90B60E032
:1002600081E00E94830C87EB90E00E94F90B1092D2
:10027000D00704C00E94D70A8093D0078091D0078E
:100280009FEC980F933020F09091D1079111F2CF0D
:10029000813319F40E94000D94C1823319F40E9435
:1002A0001C0D8FC1833309F08CC10E94AC0C0E94DD
:1002B000C80C0E94E40C0E94000D0E941C0D81C11C
:1002C000823309F07EC10E947F0C83EC90E00E9493
:1002D000F90B60E081E00E94830C8FE990E00E94BE
:1002E000F90B1092D00704C00E94D70A8093D00760
:1002F0008091D0079DEC980F923020F09091D1071B
:100300009111F2CF833309F068C00E947F0C85E819
:1003100090E00E94F90B60E081E00E94830C86E986
:1003200090E00E94F90B1092D00704C00E94D70AF7
:100330008093D0078091D0079FEC980F943020F0E5
:100340009091D1079111F2CF813319F40E94B20C30
:1003500038C1823319F40E94CE0C33C1833319F4AF
:100360000E94EA0C2EC1843309F02BC10E947F0C3D
:1003700086EA90E00E94F90B60E081E00E94830C25
:1003800087EB90E00E94F90B1092D00704C00E9406
:10039000D70A8093D0078091D0079FEC980F9330B5
:1003A00020F09091D1079111F2CF813319F40E947E
:1003B000060D07C1823319F40E94220D02C1833356
:1003C00009F0FFC00E94B20C0E94CE0C0E94EA0C01
:1003D0000E94060D0E94220DF4C0843309F0F1C082
:1003E0000E947F0C81ED90E00E94F90B60E081E0BB
:1003F0000E94830C80EE90E00E94F90B1092D007CF
:1004000004C00E94D70A8093D0078091D0079BEC4C
:10041000980F923020F09091D1079111F2CF85334F
:1004200009F0B6C00E947F0C8FEE90E00E94F90B9D
:1004300060E081E00E94830C80E091E00E94F90B73
:100440001092D0071092E9071092EA071092EB077A
:100450001092EC07D0E045C01092D00704C00E9473
:10046000D70A8093D007C091D00780ED8C0F8A30D7
:1004700040F0CA3231F0C33221F09091D10791118E
:10048000EECFED2FF0E0E351F84FC0838A3038F51E
:1004900020E030E040E251E46091E9077091EA0722
:1004A0008091EB079091EC070E946B1D6B017C0122
:1004B0006C2F70E060537109072E000C880B990BAC
:1004C0000E94B61CA70196010E94A21B6093E90737
:1004D0007093EA078093EB079093EC0701C0D5E097
:1004E000DF5FD33008F4B8CFC090E907D090EA07B7
:1004F000E090EB07F090EC0720E030E048E652E4B3
:10050000C701B6010E94661D8823BCF020E030E0E0
:1005100040E752E4C701B6010E940E1C18166CF0A9
:1005200080E090E0ACE5B2E48093E9079093EA07BD
:10053000A093EB07B093EC0720C020E030E040E749
:1005400052E4C701B6010E94661D1816B4F420E0FB
:1005500030E048E752E4C701B6010E940E1C1816AD
:1005600064F080E090E0A2E8B2E48093E907909321
:10057000EA07A093EB07B093EC076091E90770914D
:10058000EA078091EB079091EC070E94ED0D19C0EE
:100590008633B9F40E947F0C8EE091E00E94F90B43
:1005A0006091CE077091CF0780E090E00E940C0C24
:1005B0002FEF83ED90E3215080409040E1F700C0A1
:1005C0000000DF91CF91FF90EF90DF90CF900895E2
:1005D00041E063E083E00E94230341E066E083E0C2
:1005E0000E94230341E063E083E00E94940341E022
:1005F00066E083E00E9494030895442319F041309B
:1006000061F0089540E063E083E00E94940341E0DC
:1006100066E083E00E949403089541E063E083E094
:100620000E94940340E066E083E00E9494030895F2
:1006300041E063E083E00E94940341E066E083E0F0
:100640000E9494030895442319F04130C9F108959C
:10065000813091F028F08230D9F0833029F108956B
:100660002AB381E090E002C0880F991F6A95E2F7F3
:10067000809582238ABB089527B381E090E002C071
:10068000880F991F6A95E2F78095822387BB0895AA
:1006900024B381E090E002C0880F991F6A95E2F7C9
:1006A0008095822384BB089521B381E090E002C04D
:1006B000880F991F6A95E2F78095822381BB089580
:1006C000813089F028F08230C9F0833011F108952B
:1006D0002AB381E090E002C0880F991F6A95E2F783
:1006E000822B8ABB089527B381E090E002C0880F77
:1006F000991F6A95E2F7822B87BB089524B381E0A6
:1007000090E002C0880F991F6A95E2F7822B84BBA4
:10071000089521B381E090E002C0880F991F6A9587
:10072000E2F7822B81BB08954423D9F1413009F0CF
:100730006BC0813091F028F08230D9F0833029F1FC
:1007400008952BB381E090E002C0880F991F6A954D
:10075000E2F7809582238BBB089528B381E090E077
:1007600002C0880F991F6A95E2F78095822388BBA3
:10077000089525B381E090E002C0880F991F6A9523
:10078000E2F78095822385BB089522B381E090E053
:1007900002C0880F991F6A95E2F78095822382BB79
:1007A0000895813089F028F08230C9F0833011F14A
:1007B00008952BB381E090E002C0880F991F6A95DD
:1007C000E2F7822B8BBB089528B381E090E002C052
:1007D000880F991F6A95E2F7822B88BB089525B38D
:1007E00081E090E002C0880F991F6A95E2F7822BA2
:1007F00085BB089522B381E090E002C0880F991F65
:100800006A95E2F7822B82BB0895813079F028F057
:100810008230A9F08330E1F024C089B390E002C0B7
:10082000959587956A95E2F78170089586B390E073
:1008300002C0959587956A95E2F78170089583B314
:1008400090E002C0959587956A95E2F781700895CA
:1008500080B390E002C0959587956A95E2F7817024
:10086000089580E00895813089F028F08230C9F041
:10087000833011F108952BB381E090E002C0880F1E
:10088000991F6A95E2F782278BBB089528B381E010
:1008900090E002C0880F991F6A95E2F7822788BB13
:1008A000089525B381E090E002C0880F991F6A95F2
:1008B000E2F7822785BB089522B381E090E002C071
:1008C000880F991F6A95E2F7822782BB08958130CD
:1008D00089F028F08230C9F0833011F108952BB3EC
:1008E00081E090E002C0880F991F6A95E2F7822BA1
:1008F0008BBB089528B381E090E002C0880F991F58
:100900006A95E2F7822B88BB089525B381E090E0D9
:1009100002C0880F991F6A95E2F7822B85BB089564
:1009200022B381E090E002C0880F991F6A95E2F738
:10093000822B82BB08950E94500A08951F93CF9383
:10094000DF93162FD42F883008F087E0C82FC065BA
:100950000E94580A8C2F0E94640A812F0E94800AEC
:100960008D2F0E94800A0E948E0A8FE39CE90197D6
:10097000F1F700C00000DF91CF911F910895CF9350
:10098000DF93D62F883008F087E0C82FC0650E941B
:10099000580A8C2F0E94640A8D2F0E94800A0E94A0
:1009A0005E0A8C2F0E94750A0E94870AC82F0E9437
:1009B0008E0A8C2FDF91CF9108958FB780688FBFFB
:1009C0008BB780648BBF40E062E083E00E9423032A
:1009D00085B7826085BF08951F920F920FB60F9260
:1009E00011242F923F924F925F927F928F929F920B
:1009F000AF92BF92CF92DF92EF92FF920F931F932D
:100A00002F933F934F935F936F937F938F939F9316
:100A1000AF93BF93EF93FF93CF93DF93CDB7DEB741
:100A20002897DEBFCDBF8091D1079091D207892B47
:100A300009F0D2C10E947F0C8AED92E00E9424103E
:100A40008BE191E00E94241061E670E080E090E08C
:100A50000E94BE0D712C00E0AAC181E391E00E94CA
:100A6000F90B10E015C00E94D70A8093D0070CC084
:100A7000E1E0F0E0EC0FFD1FE10FF11D80830E942B
:100A8000B80B1092D0071F5F8091D0078111F0CF73
:100A9000143048F360E081E00E94830C8CE391E025
:100AA0000E94F90B10E016C00E94D70A8093D0076D
:100AB0000DC0E5E0F0E0EC0FFD1FE10FF11D8083BC
:100AC0008AE20E94B80B1092D0071F5F8091D00776
:100AD0008111EFCF143040F30E947F0C86E491E047
:100AE0000E94F90B60E081E00E94830C86E591E0B2
:100AF0000E94F90B04C00E94D70A8093D00780910E
:100B0000D0078A3211F08332B1F78A32E9F40E94B9
:100B10007F0C8CE391E00E94F90B10E00AC0E5E045
:100B2000F0E0EC0FFD1FE10FF11D80810E94B80B7A
:100B30001F5F1430A0F32FEF89E698E12150804029
:100B40009040E1F700C000000E947F0C10E004C15B
:100B5000A980B12CE12EF12C67012FEFC21AD20A25
:100B6000B60180E090E00E94BF04A816B90609F023
:100B7000F2C0AA80B12C470182E0880E911CB4011A
:100B800080E090E00E94BF04A816B90609F0E3C017
:100B9000AB80B12C170193E0290E311CB10180E02C
:100BA00090E00E94BF04A816B90609F0D4C04C809A
:100BB000512C570124E0A20EB11CB50180E090E059
:100BC0000E94BF044816590609F0C5C0ED80F12CFB
:100BD000B60181E090E00E94BF04E816F90609F032
:100BE000BAC0EE80F12CB40181E090E00E94BF0415
:100BF000E816F90609F0AFC0EF80F12CB10181E0F1
:100C000090E00E94BF04E816F90609F0A4C0E88449
:100C1000F12CB50181E090E00E94BF04E816F906CE
:100C200009F099C08091F407882311F0823029F5EA
:100C300081E090E09093D2078093D10784E691E021
:100C40000E94F90B60E081E00E94830C82E791E052
:100C50000E94F90B1091F1071F5F8FEF99E628E1D1
:100C6000815090402040E1F700C000000E947F0CBE
:100C70006894772472F804E06EC0813009F067C090
:100C80000E947F0C8BE791E00E94F90B8FEF99E6B1
:100C900028E1815090402040E1F700C000000E9410
:100CA0007F0C8AED92E00E94241088E891E00E9477
:100CB000241086EB91E00E9424108AED92E00E94BD
:100CC00024108AED92E00E9424105F9BFECF8CB12D
:100CD0008093F5078AED92E00E9424108091F50739
:100CE000813399F481E090E09093D2078093D1070B
:100CF00084E691E00E94F90B60E081E00E94830CA1
:100D000082E791E00E94F90B0CC0823351F41092FB
:100D1000D2071092D1070E947F0C84EE91E00E94CE
:100D2000F90B1091F1071F5F8FEF99E628E18150D1
:100D300090402040E1F700C000000E947F0C88E056
:100D40008093F5076894772472F804E004C06894EF
:100D5000772472F804E01C5F8091F107811708F096
:100D6000F7CE0430B9F081EF91E00E94F90B60E01A
:100D700081E00E94830C81E092E00E94F90B8FEFEA
:100D800099E628E1815090402040E1F700C0000042
:100D90000E947F0C0F5F033049F40E947F0C8BE0B0
:100DA00092E00E94F90B0E941A07FDCF739482E033
:100DB000871508F052CE89E192E00E9424108AE261
:100DC00092E00E9424108AED92E00E9424108AEDA5
:100DD00092E00E94241006C01092D2071092D10710
:100DE0000E947F0C28960FB6F894DEBF0FBECDBFD1
:100DF000DF91CF91FF91EF91BF91AF919F918F9133
:100E00007F916F915F914F913F912F911F910F9122
:100E1000FF90EF90DF90CF90BF90AF909F908F901A
:100E20007F905F904F903F902F900F900FBE0F904C
:100E30001F9018950E94BF000E94000D0E941C0D7B
:100E40000E94AC0C2FEF8DEE92E02150804090403C
:100E5000E1F700C000000E94B20C2FEF8DEE92E08F
:100E6000215080409040E1F700C000000E94000D3A
:100E70000E94AC0C2FEF8DEE92E02150804090400C
:100E8000E1F700C000000E94B20C2FEF8DEE92E05F
:100E9000215080409040E1F700C000000E94E40C27
:100EA0002FEF8DEE92E0215080409040E1F700C09E
:100EB00000000E94EA0C2FEF8DEE92E0215080405E
:100EC0009040E1F700C000000E94E40C2FEF8DEE8F
:100ED00092E0215080409040E1F700C000000E9465
:100EE000EA0C2FEF8DEE92E0215080409040E1F728
:100EF00000C000000E94AC0C0E94E40C2FEF8DEEAD
:100F000092E0215080409040E1F700C000000E9434
:100F1000B20C0E94EA0C2FEF8DEE92E0215080403F
:100F20009040E1F700C000000E94B20C0E94EA0C61
:100F30002FEF8DEE92E0215080409040E1F700C00D
:100F400000000E94AC0C0E94E40C2FEF8DEE92E0AA
:100F5000215080409040E1F700C000000E94B20C98
:100F60000E94EA0C2FEF8DEE92E0215080409040DD
:100F7000E1F700C000000E94AC0C2FEF8DEE92E074
:100F8000215080409040E1F700C000000E94B20C68
:100F90000E94E40C2FEF8DEE92E0215080409040B3
:100FA000E1F700C000000E94EA0C2FEF8DEE92E006
:100FB000215080409040E1F700C000000E94AC0C3E
:100FC0002FEF8DEE92E0215080409040E1F700C07D
:100FD00000000E94B20C0E94E40C2FEF8DEE92E014
:100FE000215080409040E1F700C000000E94EA0CD0
:100FF0002FEF8DEE92E0215080409040E1F700C04D
:1010000000000E94AC0C2FEF8DEE92E0215080404A
:101010009040E1F700C000000E94B20C0E94E40C76
:101020002FEF8DEE92E0215080409040E1F700C01C
:1010300000000E94EA0C2FEF8DEE92E021508040DC
:101040009040E1F700C000000E94C5000E94AC0C77
:101050002FEF8DEE92E0215080409040E1F700C0EC
:1010600000000E94B20C0E94E40C2FEF8DEE92E083
:10107000215080409040E1F700C000000E94EA0C3F
:101080002FEF8DEE92E0215080409040E1F700C0BC
:1010900000000E94AC0C2FEF8DEE92E021508040BA
:1010A0009040E1F700C000000E94B20C2FEF8DEEDF
:1010B00092E0215080409040E1F700C000000E9483
:1010C000E40C2FEF8DEE92E0215080409040E1F74C
:1010D00000C000000E94EA0C2FEF8DEE92E021503C
:1010E00080409040E1F700C000000E94E40C2FEF28
:1010F0008DEE92E0215080409040E1F700C000006A
:101100000E94EA0C2FEF8DEE92E02150804090403B
:10111000E1F700C000000E94AC0C0E94E40C2FEF2D
:101120008DEE92E0215080409040E1F700C0000039
:101130000E94B20C0E94EA0C2FEF8DEE92E021503B
:1011400080409040E1F700C000000E94AC0C0E947B
:10115000E40C2FEF8DEE92E0215080409040E1F7BB
:1011600000C000000E94B20C0E94EA0C2FEF8DEE2E
:1011700092E0215080409040E1F700C000000E94C2
:10118000AC0C2FEF8DEE92E0215080409040E1F7C3
:1011900000C000000E94B20C0E94E40C2FEF8DEE04
:1011A00092E0215080409040E1F700C000000E9492
:1011B000EA0C2FEF8DEE92E0215080409040E1F755
:1011C00000C000000E94AC0C2FEF8DEE92E0215089
:1011D00080409040E1F700C000000E94B20C0E94E5
:1011E000E40C2FEF8DEE92E0215080409040E1F72B
:1011F00000C000000E94EA0C2FEF8DEE92E021501B
:1012000080409040E1F700C000000E94B80C0E94AE
:10121000CB002FEF8DEE92E0215080409040E1F71F
:1012200000C000000E94B80C0E94CB002FEF83EC9E
:1012300099E0215080409040E1F700C000000E94FA
:10124000B80C0E94CB002FEF89E698E12150804036
:101250009040E1F700C000000E94B80C0E94CB0053
:101260002FEF81EE94E0215080409040E1F700C0E4
:1012700000000E94B80C0E94CB002FEF8DEE92E090
:10128000215080409040E1F700C000000E94B80C5F
:101290000E94CB002FEF8DEE92E0215080409040D5
:1012A000E1F700C000000E94B80C0E94CB008FE361
:1012B0009CE90197F1F700C000000E94B80C0E9461
:1012C000CB009FEF2DEE82E0915020408040E1F76F
:1012D00000C000000E94B80C0E94CB009FEF2DEED2
:1012E00082E0915020408040E1F700C000000E9461
:1012F000B80C0E94CB009FEF2DEE82E09150204071
:101300008040E1F700C000000E94F00C0E940C0D2C
:101310000E94B80C0E94D40C0E94280D0E94CB00A1
:101320009FEF23EC89E0915020408040E1F700C01E
:1013300000000E94B80C0E94F00C0E940C0D0E944C
:10134000D40C0E94280D0E94CB009FEF2DEE82E06E
:10135000915020408040E1F700C000000E94F00C56
:101360000E940C0D0E94B80C0E94D40C0E94280D03
:101370000E94CB009FEF21EE84E0915020408040FE
:10138000E1F700C000000E94F00C0E940C0D0E94CA
:10139000B80C0E94D40C0E94280D0E94CB009FEF35
:1013A0002DEE82E0915020408040E1F700C0000027
:1013B0000E94F00C0E940C0D0E94B80C0E94D40CEC
:1013C0000E94280D0E94CB009FEF23ED80E39150F7
:1013D00020408040E1F700C000000E94F00C0E9415
:1013E0000C0D0E94B80C0E94D40C0E94280D0E9483
:1013F000CB008FE39CE90197F1F700C000000E9449
:10140000F00C0E940C0D0E94B80C0E94D40C0E949B
:10141000280D0E94CB008FE39CE90197F1F700C0F3
:1014200000000E94F00C0E940C0D0E94B80C0E945B
:10143000D40C0E94280D0E94CB009FEF21EE84E087
:10144000915020408040E1F700C000000E94B80C9D
:101450000E94BF009FEF24E38CE091502040804029
:10146000E1F700C000000E94B80C0E94CB009FEF83
:1014700024E38CE0915020408040E1F700C0000060
:101480000E94B80C0E94BF009FEF2DEE82E09150A9
:1014900020408040E1F700C000000E94C500089590
:1014A00080E88FBF85E086BF8CE080B911B80895D1
:1014B00084EA86BF06B607FEFDCF089584EA86BF9C
:1014C00006B607FEFDCF0895880F83B984E886BF6E
:1014D00006B607FEFDCF2FEF81EE94E0215080404D
:1014E0009040E1F700C00000089590E0880F991F38
:1014F000816083B984E886BF06B607FEFDCF0895F4
:1015000083B984E886BF06B607FEFDCF089584E858
:1015100086BF06B607FEFDCF83B1089584E986BF76
:1015200086B7806886BF089540E063E080E00E944F
:10153000230340E064E080E00E94230340E065E094
:1015400080E00E94230340E066E080E00E942303E5
:1015500063E080E00E94670464E080E00E9467042A
:1015600065E080E00E94670466E080E00E94670416
:1015700041E060E080E00E94230341E061E080E020
:101580000E94230341E062E080E00E94230340E0E8
:1015900060E080E00E94940340E061E080E00E940F
:1015A000940340E062E080E00E94940308951F935A
:1015B000CF93DF93D0E010E028C041E06D2F80E0B2
:1015C0000E949403C3E019C06C2F80E00E940504C0
:1015D000811112C0EC2FF0E03397EE0FFF1FEE0FDA
:1015E000FF1FE05AFF4FED0FF11D10816C2F80E0BF
:1015F0000E9405048823D1F3CF5FC73028F340E071
:101600006D2F80E00E949403DF5FD330B0F2812F12
:10161000DF91CF911F910895CF93C82F41E060E0F3
:1016200081E00E94940341E061E081E00E94940324
:1016300041E062E081E00E94940388B39C2F907F98
:101640008F70892B88BB40E062E081E00E949403A8
:101650008FE99FE00197F1F700C0000041E062E0F0
:1016600081E00E94940320E1C29FC001112498B33D
:101670009F70892B88BB40E062E081E00E94940368
:101680008FE99FE00197F1F700C0000041E062E0C0
:1016900081E00E9494038FE19EE40197F1F700C07E
:1016A0000000CF91089541E060E081E00E942303B3
:1016B00041E061E081E00E94230341E062E081E0DB
:1016C0000E94230341E064E081E00E94230341E0A3
:1016D00065E081E00E94230341E066E081E00E9432
:1016E000230341E067E081E00E94230341E060E0E2
:1016F00081E00E94940341E061E081E00E94940354
:1017000041E062E081E00E94940341E064E081E016
:101710000E94940341E065E081E00E94940341E06F
:1017200066E081E00E94940341E067E081E00E946E
:1017300094032FEF81EE94E0215080409040E1F738
:1017400000C0000083E30E940C0B82E30E940C0B9C
:1017500088E20E940C0B81E00E940C0B82E00E9448
:101760000C0B86E00E940C0B8EE00E940C0B08957F
:10177000CF93C82F40E060E081E00E94940341E0F5
:1017800061E081E00E94940341E062E081E00E9418
:10179000940388B39C2F907F8F70892B88BB40E087
:1017A00062E081E00E9494038FE99FE00197F1F7E6
:1017B00000C0000041E062E081E00E94940320E16B
:1017C000C29FC001112498B39F70892B88BB40E051
:1017D00062E081E00E9494038FE99FE00197F1F7B6
:1017E00000C0000041E062E081E00E949403CF91DC
:1017F00008950F931F93CF938C01C0E003C00E9404
:10180000B80BCF5FF801EC0FF11D80818111F7CF8C
:10181000CF911F910F9108958F929F92AF92BF9297
:10182000EF92FF920F931F93CF93DF934B015C01D5
:10183000672B682B692B19F480E30E94B80B01E039
:1018400010E0E12CF12C2FC0C701880F991FB701C0
:10185000660F771F660F771F660F771F7C01E60EF6
:10186000F71EC501B4012AE030E040E050E00E94DC
:10187000EC1DE60EF71EE114F10459F4C801880FBF
:10188000991F000F111F000F111F000F111F080FCC
:10189000191FC501B4012AE030E040E050E00E9489
:1018A000EC1D49015A0181149104A104B10461F6AF
:1018B000A12CB12C16C0C7016AE070E00E94D81DAF
:1018C000D62FC72F805D0E94B80BED2EFC2EE114A1
:1018D000F10439F40A30110524F07801AA24A39404
:1018E000B12CEA14FB0439F7DF91CF911F910F91CE
:1018F000FF90EF90BF90AF909F908F90089581E000
:101900000E940C0B0895CF93DF9300D0CDB7DEB7C4
:1019100090E8998390EC9A83823008F080E06832F6
:1019200008F060E0E1E0F0E0EC0FFD1FE80FF11DD2
:101930008081860F0E940C0B0F900F90DF91CF914A
:10194000089541E062E082E00E94230341E062E00A
:1019500082E00E949403089540E062E082E00E94E9
:101960009403089541E062E082E00E9494030895A8
:1019700062E082E00E943304089541E063E082E087
:101980000E94230341E063E082E00E9494030895F3
:1019900040E063E082E00E949403089541E063E048
:1019A00082E00E949403089563E082E00E94330481
:1019B000089541E064E082E00E94230341E064E096
:1019C00082E00E949403089540E064E082E00E9477
:1019D0009403089541E064E082E00E949403089536
:1019E00064E082E00E943304089541E065E082E013
:1019F0000E94230341E065E082E00E949403089581
:101A000040E065E082E00E949403089541E065E0D3
:101A100082E00E949403089565E082E00E9433040E
:101A2000089541E066E082E00E94230341E066E021
:101A300082E00E949403089540E066E082E00E9404
:101A40009403089541E066E082E00E9494030895C3
:101A500066E082E00E94330408950E9449000E94DB
:101A6000B4000E949B040E94DD040E94940A0E941C
:101A7000530B0E94A10C0E94BD0C0E94D90C0E9425
:101A8000F50C0E94110D0E94CD0D0E94D70D0E94F1
:101A9000380E60E070E0CB010E94ED0D0E94E70E71
:101AA0000E9402100E94E80260E084E00E94BF04ED
:101AB0008F3F39F060E084E00E94BF048093F1071B
:101AC00002C01092F10761E084E00E94BF048F3FE2
:101AD00039F061E084E00E94BF048093F00702C007
:101AE0001092F00762E084E00E94BF048F3F41F053
:101AF00062E084E00E94BF0480937000C1E00FC0E8
:101B000084E080937000FACF41E36C2F85E00E945F
:101B10009E0441E36C2F86E00E949E04CF5FC53097
:101B200098F38AED92E00E94241080E592E00E94F2
:101B300024108AED92E00E9424108CE692E00E942C
:101B400024108CE792E00E9424108AED92E00E941B
:101B500024100E943F0F65E070E080E090E00E945A
:101B6000F40E87E00E94630002C00E94D0008091C2
:101B7000D1079091D207892BC1F7F9CF1DBC1CBCAE
:101B800027E833E137BD26BD7BBD6ABD8FB5826ACC
:101B90008FBD8EB58B618EBD089581B3806281BB90
:101BA00061E670E080E090E00E94BE0D08958FB77E
:101BB00080688FBF83B7886083BF83B7806483BF2B
:101BC00083B78F7C806283BF89B7816089BF41E022
:101BD00063E081E00E9423030895CF92DF92EF92A9
:101BE000FF926B017C0120E030E0A9010E940E1CF5
:101BF00088235CF020E030E048EC52E4C701B601F5
:101C00000E94661D18162CF00CC0C12CD12C760138
:101C100008C00F2EC12CD12CF8ECEF2EF2E4FF2ED1
:101C2000F02D20E030E0A901C701B6010E940E1C92
:101C30008823B9F020E030E048EC52E4C701B60157
:101C40000E94131C20E030E040E853E40E946B1D2A
:101C500020E030E040E85FE30E94A11B0E94851C69
:101C600001C060E06CBFFF90EF90DF90CF900895CF
:101C700083B7887F856083BF08951F920F920FB648
:101C80000F9211244F935F936F937F938F939F9342
:101C9000AF93BF938091DF079091E007A091E10798
:101CA000B091E2070196A11DB11D8093DF079093CB
:101CB000E007A093E107B093E2074091E707509156
:101CC000E80760E070E084179507A607B70759F4A6
:101CD0001092DF071092E0071092E1071092E207DE
:101CE0008091E60782BFBF91AF919F918F917F91C5
:101CF0006F915F914F910F900FBE0F901F901895AD
:101D00001F920F920FB60F9211244F935F936F9310
:101D10007F938F939F93AF93BF938091DB079091B5
:101D2000DC07A091DD07B091DE070196A11DB11D72
:101D30008093DB079093DC07A093DD07B093DE0769
:101D400081309105A105B105B9F44091E7075091A3
:101D5000E80760E070E084179507A607B70761F40D
:101D60001092DB071092DC071092DD071092DE075D
:101D70008091E6078CBF1EC081309105A105B10599
:101D800019F48FEF8CBF16C04091E7075091E80718
:101D900060E070E084179507A607B70759F4109222
:101DA000DB071092DC071092DD071092DE078091AE
:101DB000E6078CBFBF91AF919F918F917F916F91FB
:101DC0005F914F910F900FBE0F901F9018958FB796
:101DD00080688FBF85B5877F85BD85B58F7B85BDC5
:101DE00089B7806489BF08950F931F939B01AC014D
:101DF000A8EEB3E00E940E1E8B019C01689415F8BA
:101E000036952795179507951694D1F7013041E03F
:101E100014072105310560F4802F81958093E30735
:101E200084BD81E090E09093E5078093E40724C0AF
:101E300001110CC0AB01BC01032E3EE07695679505
:101E4000579547953A95D1F7302D0DC0AB01BC01A0
:101E5000032E3EE076956795579547953A95D1F7CD
:101E6000302D4F5F5F4F5093E5074093E407802F7D
:101E700081958093E30784BD1F910F91089585B5E7
:101E8000876085BD089585B5887F85BD08951F92BB
:101E90000F920FB60F9211242F933F934F935F939E
:101EA0006F937F938F939F93AF93BF93EF93FF9322
:101EB0008091D7079091D807A091D907B091DA0700
:101EC0000196A11DB11D8093D7079093D807A093C9
:101ED000D907B093DA074091E4075091E50760E035
:101EE00070E084179507A607B707A1F48091D10782
:101EF000811103C00E947F0C02C00E94430F109208
:101F0000D7071092D8071092D9071092DA0780915C
:101F1000E30784BDFF91EF91BF91AF919F918F91A6
:101F20007F916F915F914F913F912F910F900FBED5
:101F30000F901F9018951F920F920FB60F921124B9
:101F40004F935F936F937F938F939F93AF93BF93C1
:101F50008091D3079091D407A091D507B091D6076F
:101F60000196A11DB11D8093D3079093D407A09330
:101F7000D507B093D60781309105A105B105B9F415
:101F80004091E4075091E50760E070E08417950701
:101F9000A607B70761F41092D3071092D4071092E6
:101FA000D5071092D6078091E30783BD1EC081300C
:101FB0009105A105B10519F48FEF83BD16C04091BD
:101FC000E4075091E50760E070E084179507A607E5
:101FD000B70759F41092D3071092D4071092D5077F
:101FE0001092D6078091E30783BDBF91AF919F9177
:101FF0008F917F916F915F914F910F900FBE0F90D6
:102000001F9018958FB780688FBF8AB1806C8AB98E
:1020100041E061E083E00E94230340E060E083E070
:102020000E9423038AB188618AB98BB182608BB91F
:1020300080B58174866A80BD8FEC89B910BC089523
:102040008CB95D9BFECF08950F931F93CF938C01A6
:10205000C0E003C00E942010CF5FF801EC0FF11D1B
:1020600080818A30B9F7CF911F910F9108955D9BC0
:10207000FECF8CB108951F920F920FB60F921124CC
:102080004F925F926F927F928F929F92AF92BF9288
:10209000CF92DF92EF92FF920F931F932F933F9374
:1020A0004F935F936F937F938F939F93AF93BF9360
:1020B000EF93FF93CF93DF93CDB7DEB72A97DEBFC1
:1020C000CDBF19821A821B821C821D821E821F8232
:1020D00018868091D107811102C00E943F0F809124
:1020E000F407811107C25F9BFECF8CB18093F30789
:1020F000912CFCC18091F307813309F0E2C08AED95
:1021000092E00E9424108AED92E00E9424108BE855
:1021100092E00E9424108AED92E00E94241010E0C8
:102120000EC05F9BFECFE12EF12C0E943710E1E044
:10213000F0E0EC0FFD1FEE0DFF1D80831F5F1430DC
:1021400080F38AED92E00E9424108AED92E00E94D2
:10215000241088EA92E00E9424108AED92E00E9406
:10216000241010E00EC05F9BFECFE12EF12C0E94E8
:102170003710E5E0F0E0EC0FFD1FEE0DFF1D808352
:102180001F5F143080F3812C82C0C980D12C082DB0
:1021900010E078018FEFE81AF80AB70185E090E0C7
:1021A0000E94BF04C816D90609F06FC0CA80D12C9E
:1021B000380182E0680E711CB30185E090E00E9456
:1021C000BF04C816D90609F060C0AB80B12C680105
:1021D00083E0C80ED11CB60185E090E00E94BF04E8
:1021E000A816B90609F051C0AC80B12C0C5F1F4F86
:1021F000B80185E090E00E94BF04A816B90609F076
:1022000044C0AD80B12CB70186E090E00E94BF04CD
:10221000A816B906D1F5EE80F12CB30186E090E066
:102220000E94BF04E816F90681F5EF80F12CB60193
:1022300086E090E00E94BF04E816F90631F5E884D4
:10224000F12CB80186E090E00E94BF04E816F90680
:10225000E1F48AED92E00E9424108AED92E00E945F
:10226000241085EC92E00E9424108AED92E00E94F6
:10227000241080907000839481E08093F407809311
:10228000F2070F2EF5E09F2EF02D84E0880E80914E
:102290007000881508F079CF8091F407811119C179
:1022A0008AED92E00E9424108AED92E00E942410B0
:1022B0008DED92E00E9424108AED92E00E9424109D
:1022C00008C1823309F0DFC08AED92E00E94241039
:1022D0008BE892E00E9424108AED92E00E94241084
:1022E00010E00EC05F9BFECFE12EF12C0E94371054
:1022F000E1E0F0E0EC0FFD1FEE0DFF1D80831F5F9E
:10230000143080F38AED92E00E9424108AED92E06E
:102310000E94241088EA92E00E9424108AED92E044
:102320000E94241010E00EC05F9BFECFE12EF12C26
:102330000E943710E5E0F0E0EC0FFD1FEE0DFF1DF1
:1023400080831F5F143080F3B12C83C0C980D12CEF
:102350000B2D10E078018FEFE81AF80AB70182E040
:1023600090E00E94BF04C816D90609F070C0CA8068
:10237000D12C280182E0480E511CB20182E090E08D
:102380000E94BF04C816D90609F061C0CB80D12CC9
:10239000380183E0680E711CB30182E090E00E9476
:1023A000BF04C816D90609F052C0CC80D12C0C5FEE
:1023B0001F4FB80182E090E00E94BF04C816D90602
:1023C00009F045C0CD80D12CB70183E090E00E9498
:1023D000BF04C816D906D9F5EE80F12CB20183E00E
:1023E00090E00E94BF04E816F90689F5EF80F12C11
:1023F000B30183E090E00E94BF04E816F90639F5C6
:10240000E884F12CB80183E090E00E94BF04E81654
:10241000F906E9F48AED92E00E9424108AED92E038
:102420000E94241086E093E00E9424108AED92E03E
:102430000E942410B090F007B39482E08093F407D8
:1024400081E08093F2070F2EF5E09F2EF02D84E0BF
:10245000B80E8091F0078B1508F078CF8091F407C3
:10246000811137C08AED92E00E9424108AED92E03B
:102470000E9424108DE193E00E9424108AED92E0E6
:102480000E94241026C08AED92E00E9424108AED5A
:1024900092E00E94241085E493E00E9424108AEDCB
:1024A00092E00E9424108AED92E00E9424108CE6B3
:1024B00092E00E9424108CE792E00E9424108AEDA2
:1024C00092E00E9424109A945F9BFECF8CB180937F
:1024D000F30782E0981209C00E947F0C8BE092E023
:1024E0000E94F90B0E941A07FDCF939482E0891590
:1024F00008F000CE8091F407813009F03DC680914C
:10250000F207811104C08CB18093F50705C088E003
:102510008093F5071092F2078091F5078133B9F4A3
:102520006CE371E080E090E00E94BE0D8091D107E5
:102530008111B3C50E947F0C83E693E00E94F90BE2
:1025400060ED77E080E090E00E94F40EA6C5823353
:10255000B9F461E670E080E090E00E94BE0D8091E9
:10256000D10781119AC50E947F0C80E793E00E94F9
:10257000F90B60ED77E080E090E00E94F40E8DC5ED
:10258000833309F08EC08AED92E00E9424108AED18
:1025900092E00E9424108DE793E00E94241080EBCB
:1025A00093E00E9424108AED92E00E9424105F9B29
:1025B000FECF0E9437108093F507813369F40E94A3
:1025C000AC0C8091D107811161C00E947F0C8EEB11
:1025D00093E00E94F90B5AC0823369F40E94C80C40
:1025E0008091D107811152C00E947F0C8DEC93E045
:1025F0000E94F90B4BC0833369F40E94E40C809174
:10260000D107811143C00E947F0C8CED93E00E94A2
:10261000F90B3CC0843369F40E94000D8091D1070E
:10262000811134C00E947F0C8BEE93E00E94F90B65
:102630002DC0853369F40E941C0D8091D107811152
:1026400025C00E947F0C8AEF93E00E94F90B1EC008
:102650008633E1F40E94AC0C0E94C80C0E94E40C8A
:102660000E94000D0E941C0D8091D10781110EC0A7
:102670000E947F0C89E094E00E94F90B60E081E009
:102680000E94830C86EC93E00E94F90B8091D107A5
:10269000811103C560ED77E080E090E00E94F40EC8
:1026A000FCC4843309F08EC08AED92E00E942410AD
:1026B0008AED92E00E94241087E194E00E942410A9
:1026C00080EB93E00E9424108AED92E00E94241097
:1026D0005F9BFECF0E9437108093F507813369F42A
:1026E0000E94B20C8091D107811161C00E947F0CC1
:1026F0008AE494E00E94F90B5AC0823369F40E9484
:10270000CE0C8091D107811152C00E947F0C89E5C7
:1027100094E00E94F90B4BC0833369F40E94EA0CE9
:102720008091D107811143C00E947F0C88E694E01C
:102730000E94F90B3CC0843369F40E94060D80911D
:10274000D107811134C00E947F0C87E794E00E947A
:10275000F90B2DC0853369F40E94220D8091D107B9
:10276000811125C00E947F0C86E894E00E94F90B3D
:102770001EC08633E1F40E94B20C0E94CE0C0E946F
:10278000EA0C0E94060D0E94220D0E947F0C80918F
:10279000D10781110CC089E094E00E94F90B60E040
:1027A00081E00E94830C82E594E00E94F90B809105
:1027B000D107811172C460ED77E080E090E00E9463
:1027C000F40E6BC4853309F0CFC08AED92E00E940D
:1027D00024108AED92E00E94241085E994E00E9482
:1027E00024108AED92E00E9424101092E9071092C2
:1027F000EA071092EB071092EC0700E038C05F9BED
:10280000FECFE02EF12C0E943710182FF701E35174
:10281000F84F808380ED810F8A3038F520E030E07A
:1028200040E251E46091E9077091EA078091EB077B
:102830009091EC070E946B1D6B017C01612F70E091
:1028400060537109072E000C880B990B0E94B61C6F
:10285000A70196010E94A21B6093E9077093EA0703
:102860008093EB079093EC0701C005E00F5F033006
:1028700030F28091D107811123C00E947F0C8FEB31
:1028800094E00E94F90B60E081E00E94830C88ECE8
:1028900094E00E94F90B6091E9077091EA0780913A
:1028A000EB079091EC070E94851C0E940C0C85E2BE
:1028B0000E94B80B60ED77E080E090E00E94F40E9B
:1028C000C090E907D090EA07E090EB07F090EC07A2
:1028D00020E030E048E652E4C701B6010E94661DE0
:1028E0008823BCF020E030E040E752E4C701B601A5
:1028F0000E940E1C18166CF080E090E0ACE5B2E48B
:102900008093E9079093EA07A093EB07B093EC0755
:1029100020C020E030E040E752E4C701B6010E9449
:10292000661D1816B4F420E030E048E752E4C70111
:10293000B6010E940E1C181664F080E090E0A2E838
:10294000B2E48093E9079093EA07A093EB07B09372
:10295000EC076091E9077091EA078091EB0790918D
:10296000EC070E94ED0D99C3863309F050C01A861A
:1029700019869091CE0720E017C0E9E0F0E0EC0F57
:10298000FD1FE20FF11D8DEC989F812D112486957E
:1029900086958695482F440F342F330F330F340F0D
:1029A000931B9083982F2F5F223038F38AED92E0AB
:1029B0000E9424108AED92E00E94241084ED94E09D
:1029C0000E9424108A85805D0E9420108985805D88
:1029D0000E9420108AED92E00E9424108091D1077D
:1029E00081115BC30E947F0C8EE091E00E94F90B85
:1029F0006091CE077091CF0780E090E00E940C0CB0
:102A000060ED77E080E090E00E94F40E46C38733EB
:102A100009F010C18AED92E00E9424108AED92E044
:102A20000E94241083EE94E00E94241083EF94E02F
:102A30000E9424108FEF94E00E9424105F9BFECF31
:102A40000E9437108093F507813309F04BC08AED5F
:102A500092E00E9424108AED92E00E9424108BE004
:102A600095E00E94241010E00FC01F5F5F9BFECF17
:102A70000E9437106091F107610F482F50E070E01D
:102A800080E090E00E949E04143078F38AED92E09A
:102A90000E9424108AED92E00E94241080E395E0C9
:102AA0000E94241010E00FC01F5F5F9BFECF0E94AA
:102AB00037106091F107610F482F50E070E081E01E
:102AC00090E00E949E04143078F34091F1074C5F2F
:102AD0004093F10750E060E070E084E090E00E94F5
:102AE0009E049BC0823309F04BC08AED92E00E94A5
:102AF00024108AED92E00E9424108BE095E00E9461
:102B0000241010E00FC01F5F5F9BFECF0E943710A4
:102B10006091F007610F482F50E070E082E090E094
:102B20000E949E04143078F38AED92E00E942410F3
:102B30008AED92E00E94241080E395E00E94241028
:102B400010E00FC01F5F5F9BFECF0E9437106091A7
:102B5000F007610F482F50E070E083E090E00E94A2
:102B60009E04143078F34091F0074C5F4093F007D7
:102B700050E061E070E084E090E00E949E044DC06F
:102B8000833309F04AC08AED92E00E9424108AED56
:102B900092E00E9424108BE095E00E94241010E047
:102BA0000FC01F5F5F9BFECF0E94371060917000C7
:102BB000610F482F50E070E085E090E00E949E0495
:102BC000143078F38AED92E00E9424108AED92E0AE
:102BD0000E94241080E395E00E94241010E00FC0B2
:102BE0001F5F5F9BFECF0E94371060917000610FE6
:102BF000482F50E070E086E090E00E949E04143080
:102C000078F3409170004C5F4093700050E062E0B8
:102C100070E084E090E00E949E048AED92E00E94C1
:102C200024108AED92E00E94241085E595E00E9430
:102C3000241033C2883309F011C28AED92E00E9459
:102C400024108AED92E00E9424108FE695E00E9405
:102C500024108BEA95E00E9424108BEB95E00E94F3
:102C6000241087EC95E00E9424105F9BFECF0E9409
:102C700037108093F507813309F09BC08AED92E00D
:102C80000E9424108AED92E00E94241083ED95E0CA
:102C90000E94241010E00EC05F9BFECFE12EF12CAD
:102CA0000E943710E1E0F0E0EC0FFD1FEE0DFF1D7C
:102CB00080831F5F143080F310E0F12C74C0A98072
:102CC000B12CC12ED12CB6016F5F7F4F80E090E018
:102CD0000E94BF04A816B90609F064C0AA80B12CEE
:102CE000B6016E5F7F4F80E090E00E94BF04A8169F
:102CF000B90609F057C0AB80B12CB6016D5F7F4FAC
:102D000080E090E00E94BF04A816B90609F04AC00E
:102D1000AC80B12CB6016C5F7F4F80E090E00E94E8
:102D2000BF04A816B906F1F51F5F1DC0E12EF12CF6
:102D3000670184E0C80ED11CB60180E090E00E94DB
:102D4000BF04AC01B70180E090E00E949E04B60190
:102D500081E090E00E94BF04AC01B70181E090E007
:102D60000E949E041F5F4091F1074117F8F64450FE
:102D70004093F10750E060E070E084E090E00E9452
:102D80009E041091F1071F5F8AED92E00E942410CB
:102D90008AED92E00E94241082EF95E00E942410B8
:102DA000FF24F3941C5F8091F107811708F087CF0F
:102DB00046C1823309F09BC08AED92E00E94241044
:102DC0008AED92E00E9424108EE096E00E9424108A
:102DD00010E00EC05F9BFECFE12EF12C0E94371059
:102DE000E1E0F0E0EC0FFD1FEE0DFF1D80831F5FA3
:102DF000143080F310E0F12C74C0A980B12CC12EE6
:102E0000D12CB6016F5F7F4F82E090E00E94BF043B
:102E1000A816B90609F064C0AA80B12CB6016E5F8D
:102E20007F4F82E090E00E94BF04A816B90609F027
:102E300057C0AB80B12CB6016D5F7F4F82E090E050
:102E40000E94BF04A816B90609F04AC0AC80B12C94
:102E5000B6016C5F7F4F82E090E00E94BF04A8162D
:102E6000B906F1F51F5F1DC0E12EF12C670184E06A
:102E7000C80ED11CB60182E090E00E94BF04AC01F4
:102E8000B70182E090E00E949E04B60183E090E0EA
:102E90000E94BF04AC01B70183E090E00E949E0451
:102EA0001F5F4091F0074117F8F644504093F00738
:102EB00050E061E070E084E090E00E949E04109198
:102EC000F0071F5F8AED92E00E9424108AED92E0E5
:102ED0000E94241082EF95E00E942410FF24F394B6
:102EE0001C5F8091F007811708F087CFA8C083335B
:102EF00009F0A4C08AED92E00E9424108AED92E0CD
:102F00000E9424108DE296E00E94241010E00EC072
:102F10005F9BFECFE12EF12C0E943710E1E0F0E044
:102F2000EC0FFD1FEE0DFF1D80831F5F143080F33B
:102F300004E0F12C7DC0A980B12CC02ED12CB601AB
:102F40006F5F7F4F85E090E00E94BF04A816B9062E
:102F500009F06DC0AA80B12CB6016E5F7F4F85E08D
:102F600090E00E94BF04A816B90609F060C0AB80CB
:102F7000B12CB6016D5F7F4F85E090E00E94BF04E9
:102F8000A816B90609F053C0AC80B12CB6016C5F2D
:102F90007F4F85E090E00E94BF04A816B90609F0B3
:102FA00046C011E0100F1DC0E12EF12C670184E036
:102FB000C80ED11CB60185E090E00E94BF04AC01B0
:102FC000B70185E090E00E949E04B60186E090E0A3
:102FD0000E94BF04AC01B70186E090E00E949E040D
:102FE0001F5F809170008117F8F69CEF980F909307
:102FF0007000011102C0809370004091700050E099
:1030000062E070E084E090E00E949E040091700015
:103010000F5F8AED92E00E9424108AED92E00E94F8
:10302000241082EF95E00E942410FF24F3940C5F9B
:1030300080917000801708F07ECF01C0F12CF11054
:103040002CC08AED92E00E9424108AED92E00E944A
:1030500024108CE496E00E9424101FC0803379F481
:103060001092F4078AED92E00E9424108AED92E01B
:103070000E94241080E696E00E9424100EC0883042
:1030800061F08AED92E00E9424108AED92E00E94A5
:10309000241085E493E00E9424108091D1078823B6
:1030A00081F08091F507893361F41092D1070E9475
:1030B0007F0C8AED92E00E9424108FE696E00E9439
:1030C00024108091F407882309F441C08AED92E02E
:1030D0000E94241088E896E00E9424108AED92E075
:1030E0000E94241083EA96E00E94241085EB96E06B
:1030F0000E94241088EC96E00E94241087ED96E050
:103100000E94241087EE96E00E94241088EF96E03B
:103110000E94241084E197E00E94241085E297E049
:103120000E9424108091D107882321F08BE397E03F
:103130000E94241080E597E00E9424108BE597E020
:103140000E9424108AED92E00E942410C9C28AEDE8
:1031500092E00E9424108AED92E00E9424108CE6F6
:1031600092E00E9424108CE792E00E9424108AEDE5
:1031700092E00E942410B4C2823009F0B1C28CB136
:103180008093F5078091F207882329F088E08093E7
:10319000F5071092F2078091F507813309F08EC090
:1031A0008AED92E00E9424108AED92E00E942410A1
:1031B0008DE793E00E94241080EB93E00E9424109E
:1031C0008AED92E00E9424105F9BFECF0E94371090
:1031D0008093F507813369F40E94AC0C8091D1078C
:1031E000811161C00E947F0C8EEB93E00E94F90B6D
:1031F0005AC0823369F40E94C80C8091D1078111B2
:1032000052C00E947F0C8DEC93E00E94F90B4BC0E2
:10321000833369F40E94E40C8091D107811143C08B
:103220000E947F0C8CED93E00E94F90B3CC084332C
:1032300069F40E94000D8091D107811134C00E9471
:103240007F0C8BEE93E00E94F90B2DC0853369F45F
:103250000E941C0D8091D107811125C00E947F0C16
:103260008AEF93E00E94F90B1EC08633E1F40E94BE
:10327000AC0C0E94C80C0E94E40C0E94000D0E943D
:103280001C0D8091D10781110EC00E947F0C89E036
:1032900094E00E94F90B60E081E00E94830C86ECD0
:1032A00093E00E94F90B8091D1078111DCC160EDA0
:1032B00077E080E090E00E94F40ED5C1823309F0FF
:1032C0008EC08AED92E00E9424108AED92E00E9466
:1032D000241087E194E00E94241080EB93E00E9488
:1032E00024108AED92E00E9424105F9BFECF0E9482
:1032F00037108093F507813369F40E94B20C8091F6
:10330000D107811161C00E947F0C8AE494E00E9481
:10331000F90B5AC0823369F40E94CE0C8091D10718
:10332000811152C00E947F0C89E594E00E94F90B44
:103330004BC0833369F40E94EA0C8091D10781115C
:1033400043C00E947F0C88E694E00E94F90B3CC0C9
:10335000843369F40E94060D8091D107811134C035
:103360000E947F0C87E794E00E94F90B2DC0853303
:1033700069F40E94220D8091D107811125C00E941D
:103380007F0C86E894E00E94F90B1EC08633E1F4BE
:103390000E94B20C0E94CE0C0E94EA0C0E94060D04
:1033A0000E94220D0E947F0C8091D10781110CC0D8
:1033B00089E094E00E94F90B60E081E00E94830CB8
:1033C00082E594E00E94F90B8091D10781114BC1F5
:1033D00060ED77E080E090E00E94F40E44C183331A
:1033E00009F0CFC08AED92E00E9424108AED92E0AD
:1033F0000E94241085E994E00E9424108AED92E056
:103400000E9424101092E9071092EA071092EB072D
:103410001092EC0700E038C05F9BFECFE02EF12C4D
:103420000E943710182FF701E351F84F808380ED89
:10343000810F8A3038F520E030E040E251E46091BD
:10344000E9077091EA078091EB079091EC070E94E1
:103450006B1D6B017C01612F70E060537109072EB9
:10346000000C880B990B0E94B61CA70196010E94C4
:10347000A21B6093E9077093EA078093EB07909390
:10348000EC0701C005E00F5F033030F28091D107F7
:10349000811123C00E947F0C8FEB94E00E94F90BF6
:1034A00060E081E00E94830C88EC94E00E94F90BBC
:1034B0006091E9077091EA078091EB079091EC0722
:1034C0000E94851C0E940C0C85E20E94B80B60EDE6
:1034D00077E080E090E00E94F40EC090E907D09081
:1034E000EA07E090EB07F090EC0720E030E048E6D8
:1034F00052E4C701B6010E94661D8823BCF020E09B
:1035000030E040E752E4C701B6010E940E1C1816D5
:103510006CF080E090E0ACE5B2E48093E907909332
:10352000EA07A093EB07B093EC0720C020E030E05F
:1035300040E752E4C701B6010E94661D1816B4F4B4
:1035400020E030E048E752E4C701B6010E940E1CBB
:10355000181664F080E090E0A2E8B2E48093E907F6
:103560009093EA07A093EB07B093EC076091E9070B
:103570007091EA078091EB079091EC070E94ED0DA6
:1035800072C0843309F050C01A8619869091CE0714
:1035900020E017C0E9E0F0E0EC0FFD1FE20FF11DA5
:1035A0008DEC989F812D1124869586958695482FC0
:1035B000440F342F330F330F340F931B9083982F06
:1035C0002F5F223038F38AED92E00E9424108AEDBA
:1035D00092E00E94241084ED94E00E9424108A85D9
:1035E000805D0E9420108985805D0E9420108AEDF8
:1035F00092E00E9424108091D107811134C00E9472
:103600007F0C8EE091E00E94F90B6091CE077091E3
:10361000CF0780E090E00E940C0C60ED77E080E046
:1036200090E00E94F40E1FC0803379F41092F407EA
:103630008AED92E00E9424108AED92E00E9424100C
:1036400080E696E00E9424100EC0883061F08AED7A
:1036500092E00E9424108AED92E00E94241085E4FA
:1036600093E00E9424108091F407882369F18AED89
:1036700092E00E9424108AED92E00E94241088E8D3
:1036800096E00E9424108AED92E00E94241082E8C5
:1036900097E00E94241081E997E00E94241081EABB
:1036A00097E00E94241082EB97E00E94241080E5AE
:1036B00097E00E9424108BE597E00E9424108AED89
:1036C00092E00E9424100CC08CE692E00E9424102C
:1036D0008CE792E00E9424108AED92E00E94241070
:1036E0002A960FB6F894DEBF0FBECDBFDF91CF9103
:1036F000FF91EF91BF91AF919F918F917F916F91CA
:103700005F914F913F912F911F910F91FF90EF90FB
:10371000DF90CF90BF90AF909F908F907F906F90F1
:103720005F904F900F900FBE0F901F9018951F92B3
:103730000F920FB60F9211240F900FBE0F901F9093
:1037400018955058BB27AA270E94B91B0C942C1D12
:103750000E941E1D38F00E94251D20F039F49F3F65
:1037600019F426F40C941B1D0EF4E095E7FB0C9461
:10377000151DE92F0E943D1D58F3BA176207730704
:103780008407950720F079F4A6F50C945F1D0EF4DC
:10379000E0950B2EBA2FA02D0B01B90190010C0161
:1037A000CA01A0011124FF27591B99F0593F50F479
:1037B000503E68F11A16F040A22F232F342F4427D1
:1037C000585FF3CF469537952795A795F0405395C9
:1037D000C9F77EF41F16BA0B620B730B840BBAF099
:1037E0009150A1F0FF0FBB1F661F771F881FC2F704
:1037F0000EC0BA0F621F731F841F48F48795779518
:103800006795B795F7959E3F08F0B0CF9395880FD1
:1038100008F09927EE0F9795879508950E94F11C5F
:1038200008F481E008950E94271C0C942C1D0E942E
:10383000251D58F00E941E1D40F029F45F3F29F01D
:103840000C94151D51110C94601D0C941B1D0E94AD
:103850003D1D68F39923B1F3552391F3951B550B47
:10386000BB27AA2762177307840738F09F5F5F4F53
:10387000220F331F441FAA1FA9F335D00E2E3AF092
:10388000E0E832D091505040E695001CCAF72BD0AA
:10389000FE2F29D0660F771F881FBB1F26173707FB
:1038A0004807AB07B0E809F0BB0B802DBF01FF272D
:1038B00093585F4F3AF09E3F510578F00C94151DD8
:1038C0000C94601D5F3FE4F3983ED4F386957795A2
:1038D0006795B795F7959F5FC9F7880F911D9695E6
:1038E000879597F90895E1E0660F771F881FBB1F42
:1038F000621773078407BA0720F0621B730B840BEF
:10390000BA0BEE1F88F7E09508950E94451D88F0D8
:103910009F5798F0B92F9927B751B0F0E1F0660F93
:10392000771F881F991F1AF0BA95C9F714C0B130D4
:1039300091F00E945F1DB1E008950C945F1D672F08
:10394000782F8827B85F39F0B93FCCF38695779503
:103950006795B395D9F73EF49095809570956195EC
:103960007F4F8F4F9F4F0895E89409C097FB3EF417
:1039700090958095709561957F4F8F4F9F4F9923BC
:10398000A9F0F92F96E9BB279395F695879577953A
:103990006795B795F111F8CFFAF4BB0F11F460FFFA
:1039A0001BC06F5F7F4F8F4F9F4F16C0882311F052
:1039B00096E911C0772321F09EE8872F762F05C066
:1039C000662371F096E8862F70E060E02AF09A9501
:1039D000660F771F881FDAF7880F9695879597F9F6
:1039E0000895990F0008550FAA0BE0E8FEEF161690
:1039F0001706E807F907C0F012161306E407F507E3
:103A000098F0621B730B840B950B39F40A2661F056
:103A1000232B242B252B21F408950A2609F4A140F9
:103A2000A6958FEF811D811D089597F99F6780E806
:103A300070E060E008959FEF80EC089500240A9400
:103A40001616170618060906089500240A94121679
:103A50001306140605060895092E0394000C11F4AC
:103A6000882352F0BB0F40F4BF2B11F460FF04C059
:103A70006F5F7F4F8F4F9F4F089557FD9058440FB2
:103A8000551F59F05F3F71F04795880F97FB991FBD
:103A900061F09F3F79F0879508951216130614067A
:103AA000551FF2CF4695F1DF08C016161706180607
:103AB000991FF1CF86957105610508940895E894E2
:103AC000BB2766277727CB0197F908950E94F11C41
:103AD00008F48FEF08950E947E1D0C942C1D0E9407
:103AE0001E1D38F00E94251D20F0952311F00C9426
:103AF000151D0C941B1D11240C94601D0E943D1D6E
:103B000070F3959FC1F3950F50E0551F629FF00130
:103B1000729FBB27F00DB11D639FAA27F00DB11D49
:103B2000AA1F649F6627B00DA11D661F829F2227D2
:103B3000B00DA11D621F739FB00DA11D621F839F59
:103B4000A00D611D221F749F3327A00D611D231F2F
:103B5000849F600D211D822F762F6A2F11249F577D
:103B600050409AF0F1F088234AF0EE0FFF1FBB1F80
:103B7000661F771F881F91505040A9F79E3F51053F
:103B800080F00C94151D0C94601D5F3FE4F3983E8B
:103B9000D4F3869577956795B795F795E7959F5FE9
:103BA000C1F7FE2B880F911D9695879597F908957B
:103BB00097FB072E16F4009407D077FD09D00E94DA
:103BC000191E07FC05D03EF4909581959F4F0895EE
:103BD000709561957F4F0895A1E21A2EAA1BBB1B19
:103BE000FD010DC0AA1FBB1FEE1FFF1FA217B307C9
:103BF000E407F50720F0A21BB30BE40BF50B661FDF
:103C0000771F881F991F1A9469F7609570958095A2
:103C100090959B01AC01BD01CF0108950E942D1E1E
:103C2000A59F900DB49F900DA49F800D911D112410
:103C30000895AA1BBB1B51E107C0AA1FBB1FA617F3
:103C4000B70710F0A61BB70B881F991F5A95A9F745
:103C500080959095BC01CD010895A29FB001B39FBE
:103C6000C001A39F700D811D1124911DB29F700D85
:0C3C7000811D1124911D0895F894FFCFD0
:103C7C003132330034353600373839002A302300DE
:103C8C0004312E6F70656E206C616D707300322E76
:103C9C006D6F726500312E6C616D70312020322E8B
:103CAC006C616D703200332E6C616D70332020347A
:103CBC002E6D6F726500312E6C616D703420203268
:103CCC002E6C616D703500332E616C6C206C616DE7
:103CDC00707300332E636C6F7365206C616D707341
:103CEC0000352E76617269616E74206C616D7000A6
:103CFC00362E446973706C61792074656D70005058
:103D0C006C6561736520656E7465722074686500FE
:103D1C0025206F6620746865206C616D7000546599
:103D2C006D70657261747572653A005468652073C4
:103D3C00797374656D2069732062757379210D0A2E
:103D4C000075736572206E616D653A0070617373F6
:103D5C00776F72643A0053686F7720706173737772
:103D6C006F7264202A006F746865722070726573BC
:103D7C0073202300557365722076657269666965D8
:103D8C00640057656C636F6D65210041736B696EE0
:103D9C00672041646D696E00312E416363657074F8
:103DAC002075736572207265717565737420746FFC
:103DBC0020636F6E74726F6C2074686520737973F6
:103DCC0074656D0D0A00322E52656A656374207538
:103DDC00736572207265717565737420746F2063DE
:103DEC006F6E74726F6C2074686520737973746570
:103DFC006D0D0A0041646D696E2044656E696564E1
:103E0C0000557365722F506173732057726F6E6714
:103E1C000054727920616761696E00466972696E3F
:103E2C006720416C61726D210053797374656D204C
:103E3C006F6E6C696E65210D0A005072657373208C
:103E4C00616E79206B657920746F20636F6E74726C
:103E5C006F6C207468652073797374656D0D0A003E
:103E6C0057656C636F6D6520746F20746865207383
:103E7C006D61727420686F6D650D0A00312E456E90
:103E8C007465722041646D696E0D0A00322E456EA8
:103E9C0074657220557365720D0A00506C65617300
:103EAC006520656E74657220796F75722075736507
:103EBC00726E616D650D0A00506C656173652065ED
:103ECC006E74657220796F75722070617373776F81
:103EDC0072640D0A0041646D696E206578697374B3
:103EEC002C2057656C636F6D65210D0A0041646D64
:103EFC00696E20646F6573206E6F742065786973CA
:103F0C00742E20506C656173652074727920616722
:103F1C0061696E0D0A00557365722065786973745A
:103F2C002C2057656C636F6D65210D0A0055736508
:103F3C007220646F6573206E6F742065786973747A
:103F4C002E20506C656173652074727920616761F5
:103F5C00696E0D0A00506C6561736520656E746541
:103F6C007220636F6D6D616E64206E756D6265722B
:103F7C000D0A00446F6F72204F70656E65642100EE
:103F8C00446F6F7220436C6F7365642100576869CE
:103F9C006368206C616D7020646F20796F75207779
:103FAC00616E7420746F206265206F70656E65643D
:103FBC002846726F6D203120746F2035290D0A0050
:103FCC00362E416C6C204C616D70730D0A004C6187
:103FDC006D70283129204F70656E6564004C616DE1
:103FEC0070283229204F70656E6564004C616D70CD
:103FFC00283329204F70656E6564004C616D702804
:10400C003429204F70656E6564004C616D702835E5
:10401C0029204F70656E656400416C6C204C616D9D
:10402C00707320417265005768696368206C616D1C
:10403C007020646F20796F752077616E7420746FB7
:10404C0020626520436C6F7365642846726F6D2027
:10405C003120746F2035290D0A004C616D702831A8
:10406C002920436C6F736564004C616D7028322994
:10407C0020436C6F736564004C616D70283329208C
:10408C00436C6F736564004C616D70283429204358
:10409C006C6F736564004C616D7028352920436C1E
:1040AC006F73656400506C6561736520656E746533
:1040BC0072207468652070657263656E74616765E3
:1040CC00206F6620746865206C616D700D0A004C61
:1040DC00616D70204F4E210050657263656E746186
:1040EC0067653A0054656D70657261747572653AF6
:1040FC000D0A00312E4B6579706164207573657201
:10410C000D0A00322E504320757365720D0A003370
:10411C002E414420757365720D0A00506C656173F5
:10412C006520656E7465722034206E756D626572E3
:10413C007320617320757365726E616D650D0A0075
:10414C00506C6561736520656E7465722034206EE9
:10415C00756D626572732061732070617373776F14
:10416C0072640D0A00557365722061646465642085
:10417C007375636365737366756C6C790D0A0044B3
:10418C006F20796F752077616E7420746F20646571
:10419C006C657465206B65797061642075736572EC
:1041AC00202C2050432075736572206F722041645F
:1041BC006D696E20757365720D0A00312E4B657931
:1041CC0070616420557365720D0A00322E504320C5
:1041DC00557365720D0A00332E4144205573657278
:1041EC000D0A00506C6561736520656E74657220F4
:1041FC00746865204B5020757365726E616D650D2A
:10420C000A00557365722064656C6574656420736F
:10421C0075636365737366756C6C790D0A00506C0D
:10422C006561736520656E746572207468652050D5
:10423C004320757365726E616D650D0A00506C6577
:10424C0061736520656E74657220746865204144E5
:10425C0020757365726E616D650D0A00557365721C
:10426C00206973206E6F742065786973740D0A0071
:10427C004279652D42796520757365720D0A004B84
:10428C0065797061642075736572206B69636B6509
:10429C0064206F75740D0A0057616974696E67202C
:1042AC00666F7220796F757220636F6D6D616E64CD
:1042BC000D0A00312E4F70656E2074686520646F96
:1042CC006F720D0A00322E436C6F73652074686533
:1042DC0020646F6F720D0A00332E4F70656E206C68
:1042EC00616D70730D0A00342E436C6F7365206C16
:1042FC00616D70730D0A00352E56617269616E74B2
:10430C00206C616D700D0A00362E446973706C61FF
:10431C0079207468652074656D706572617475724E
:10432C00650D0A00372E416464206E657720757325
:10433C0065720D0A00382E44656C657465206578CD
:10434C0069737420757365720D0A00392E46697293
:10435C0065204B657970616420757365720D0A0078
:10436C00302E4C6F676F75740D0A005265706C7946
:10437C00207769746820746865206E756D6265724B
:10438C00206F662074686520636F6D6D616E640DBF
:10439C000A00312E4F70656E206C616D70730D0AC2
:1043AC0000322E436C6F7365206C616D70730D0A57
:1043BC0000332E56617269616E74206C616D700DE4
:1043CC000A00342E446973706C617920746865201E
:0E43DC0074656D70657261747572650D0A000E
:00000001FF
